{
  "contractName": "Lottery",
  "abi": [
    {
      "inputs": [],
      "payable": false,
      "stateMutability": "nonpayable",
      "type": "constructor"
    },
    {
      "constant": true,
      "inputs": [],
      "name": "owner",
      "outputs": [
        {
          "internalType": "address",
          "name": "",
          "type": "address"
        }
      ],
      "payable": false,
      "stateMutability": "view",
      "type": "function"
    },
    {
      "constant": true,
      "inputs": [
        {
          "internalType": "uint256",
          "name": "",
          "type": "uint256"
        }
      ],
      "name": "players",
      "outputs": [
        {
          "internalType": "address payable",
          "name": "",
          "type": "address"
        }
      ],
      "payable": false,
      "stateMutability": "view",
      "type": "function"
    },
    {
      "constant": true,
      "inputs": [],
      "name": "winner",
      "outputs": [
        {
          "internalType": "address",
          "name": "",
          "type": "address"
        }
      ],
      "payable": false,
      "stateMutability": "view",
      "type": "function"
    },
    {
      "constant": false,
      "inputs": [],
      "name": "enter",
      "outputs": [],
      "payable": true,
      "stateMutability": "payable",
      "type": "function"
    },
    {
      "constant": false,
      "inputs": [],
      "name": "pickWinner",
      "outputs": [],
      "payable": false,
      "stateMutability": "nonpayable",
      "type": "function"
    },
    {
      "constant": true,
      "inputs": [],
      "name": "getPlayers",
      "outputs": [
        {
          "internalType": "address payable[]",
          "name": "",
          "type": "address[]"
        }
      ],
      "payable": false,
      "stateMutability": "view",
      "type": "function"
    },
    {
      "constant": true,
      "inputs": [],
      "name": "getWinner",
      "outputs": [
        {
          "internalType": "address",
          "name": "",
          "type": "address"
        }
      ],
      "payable": false,
      "stateMutability": "view",
      "type": "function"
    }
  ],
  "bytecode": "0x608060405234801561001057600080fd5b50336000806101000a81548173ffffffffffffffffffffffffffffffffffffffff021916908373ffffffffffffffffffffffffffffffffffffffff16021790555061080c806100606000396000f3fe6080604052600436106100705760003560e01c80638e7ea5b21161004e5780638e7ea5b21461014f578063dfbf53ae146101a6578063e97dcb62146101fd578063f71d96cb1461020757610070565b80635d495aea146100755780638b5b9ccc1461008c5780638da5cb5b146100f8575b600080fd5b34801561008157600080fd5b5061008a610282565b005b34801561009857600080fd5b506100a1610435565b6040518080602001828103825283818151815260200191508051906020019060200280838360005b838110156100e45780820151818401526020810190506100c9565b505050509050019250505060405180910390f35b34801561010457600080fd5b5061010d6104c3565b604051808273ffffffffffffffffffffffffffffffffffffffff1673ffffffffffffffffffffffffffffffffffffffff16815260200191505060405180910390f35b34801561015b57600080fd5b506101646104e8565b604051808273ffffffffffffffffffffffffffffffffffffffff1673ffffffffffffffffffffffffffffffffffffffff16815260200191505060405180910390f35b3480156101b257600080fd5b506101bb610512565b604051808273ffffffffffffffffffffffffffffffffffffffff1673ffffffffffffffffffffffffffffffffffffffff16815260200191505060405180910390f35b610205610538565b005b34801561021357600080fd5b506102406004803603602081101561022a57600080fd5b81019080803590602001909291905050506105fe565b604051808273ffffffffffffffffffffffffffffffffffffffff1673ffffffffffffffffffffffffffffffffffffffff16815260200191505060405180910390f35b6000809054906101000a900473ffffffffffffffffffffffffffffffffffffffff1673ffffffffffffffffffffffffffffffffffffffff163373ffffffffffffffffffffffffffffffffffffffff16146102db57600080fd5b60006001805490506102eb61063a565b816102f257fe5b0690506001818154811061030257fe5b9060005260206000200160009054906101000a900473ffffffffffffffffffffffffffffffffffffffff1673ffffffffffffffffffffffffffffffffffffffff166108fc479081150290604051600060405180830381858888f19350505050158015610372573d6000803e3d6000fd5b506001818154811061038057fe5b9060005260206000200160009054906101000a900473ffffffffffffffffffffffffffffffffffffffff16600260006101000a81548173ffffffffffffffffffffffffffffffffffffffff021916908373ffffffffffffffffffffffffffffffffffffffff160217905550600060405190808252806020026020018201604052801561041b5781602001602082028038833980820191505090505b50600190805190602001906104319291906106dc565b5050565b606060018054806020026020016040519081016040528092919081815260200182805480156104b957602002820191906000526020600020905b8160009054906101000a900473ffffffffffffffffffffffffffffffffffffffff1673ffffffffffffffffffffffffffffffffffffffff168152602001906001019080831161046f575b5050505050905090565b6000809054906101000a900473ffffffffffffffffffffffffffffffffffffffff1681565b6000600260009054906101000a900473ffffffffffffffffffffffffffffffffffffffff16905090565b600260009054906101000a900473ffffffffffffffffffffffffffffffffffffffff1681565b655af3107a40003411610596576040517f08c379a000000000000000000000000000000000000000000000000000000000815260040180806020018281038252602e8152602001806107aa602e913960400191505060405180910390fd5b60013390806001815401808255809150509060018203906000526020600020016000909192909190916101000a81548173ffffffffffffffffffffffffffffffffffffffff021916908373ffffffffffffffffffffffffffffffffffffffff16021790555050565b6001818154811061060b57fe5b906000526020600020016000915054906101000a900473ffffffffffffffffffffffffffffffffffffffff1681565b6000444260016040516020018084815260200183815260200182805480156106b757602002820191906000526020600020905b8160009054906101000a900473ffffffffffffffffffffffffffffffffffffffff1673ffffffffffffffffffffffffffffffffffffffff168152602001906001019080831161066d575b505093505050506040516020818303038152906040528051906020012060001c905090565b828054828255906000526020600020908101928215610755579160200282015b828111156107545782518260006101000a81548173ffffffffffffffffffffffffffffffffffffffff021916908373ffffffffffffffffffffffffffffffffffffffff160217905550916020019190600101906106fc565b5b5090506107629190610766565b5090565b6107a691905b808211156107a257600081816101000a81549073ffffffffffffffffffffffffffffffffffffffff02191690555060010161076c565b5090565b9056fe456e74657220616d6f756e74206e7573742062652067726561746572207468616e20302e30303031206574686572a265627a7a7231582039fb4645a5223abf5e2425b52f96d72713835df2e1df4d70fbe88b893b2eb88564736f6c63430005100032",
  "source": "// SPDX-License-Identifier: MIT\npragma solidity >=0.4.21 <0.9.0;\n\ncontract Lottery {\n    address public owner;\n    address payable[] public players;\n    address public winner;\n\n    constructor() public {\n        owner = msg.sender;\n    }\n\n    modifier owerOnly {\n        require(msg.sender == owner);\n        _;\n    }\n\n    //下注\n    function enter() public payable {\n        //檢查下注金額大於 0.0001 ether\n        require(\n            msg.value > 0.0001 ether,\n            \"Enter amount nust be greater than 0.0001 ether\"\n        );\n        //將msg.sender放入players陣列\n        players.push(msg.sender);\n    }\n\n    //生成隨機亂數\n    function random() private view returns (uint256) {\n        return\n            uint256(\n                keccak256(\n                    abi.encodePacked(block.difficulty, block.timestamp, players)\n                )\n            );\n    }\n\n    //選出贏家\n    function pickWinner() public owerOnly {\n        uint256 index = random() % players.length;\n        players[index].transfer(address(this).balance);\n        winner = players[index];\n        //reset\n        players = new address payable[](0);\n    }\n\n    function getPlayers() public view returns (address payable[] memory) {\n        return players;\n    }\n\n    function getWinner() public view returns (address) {\n        return winner;\n    }\n}\n",
  "sourcePath": "C:/Ubuntu/Github/Lottery/contracts/Lottery.sol",
  "compiler": {
    "name": "solc",
    "version": "0.5.16+commit.9c3226ce.Emscripten.clang"
  },
  "schemaVersion": "3.3.4",
  "updatedAt": "2021-03-16T05:02:14.523Z",
  "networkType": "ethereum",
  "devdoc": {
    "methods": {}
  },
  "userdoc": {
    "methods": {}
  }
}